:020000042000DA
:100000006F00001CFA050020FA050020640600209D
:10001000FA050020FA050020FA05002062080020F9
:10002000FA050020FA050020FA050020FA05002054
:10003000FA050020FA050020FA050020FA05002044
:10004000FA050020FA050020FA050020FA05002034
:10005000FA05002000000000000000000000000081
:100060000000000000000000000000000000000090
:100070000000000000000000000000000000000080
:100080000000000000000000000000000000000070
:100090000000000000000000000000000000000060
:1000A0000000000000000000000000000000000050
:1000B0000000000000000000000000000000000040
:1000C000FA05002000000000000000000000000011
:1000D0000000000000000000000000000000000020
:1000E0000000000000000000000000000000000010
:1000F000FA050020FA050020FA050020FA05002084
:10010000FA050020FA050020FA050020FA05002073
:10011000FA050020FA050020FA050020FA05002063
:10012000FA050020FA050020FA050020FA05002053
:1001300000000000000000000000000000000000BF
:1001400000000000000000000000000000000000AF
:10015000000000000000000000000000000000009F
:10016000000000000000000000000000000000008F
:10017000000000000000000000000000000000007F
:10018000000000000000000000000000000000006F
:10019000000000000000000000000000000000005F
:1001A000000000000000000000000000000000004F
:1001B000000000000000000000000000000000003F
:1001C00073700430970100709381C16917820070C9
:1001D000130242F9170101701301C1E293020020DA
:1001E00073A0027D970200009382C2E17390723087
:1001F00097020000938202397390C27E73E0C07E42
:100200009702000093820210739052309302F00321
:1002100073B0523073E05130996273B0023089622A
:1002200073A0023073F00232170500001305851128
:1002300097050000938505116300B502175600006D
:100240001306661F63FAC5008322050023A055002C
:1002500011059105E3EAC5FE175500001305051EBB
:1002600097050070938505DA6300B5021786007064
:10027000130646EF63FAC5008322050023A055004C
:1002800011059105E3EAC5FE17850070130585ED9C
:10029000978500709385052B6377B50023200500B3
:1002A0001105E36DB5FEEF00302D17350000130585
:1002B0008528EF306027EF30202BEF007031970258
:1002C000000093822224739052309302F00373B0A3
:1002D000523073E05130014581459D20EF00D0340C
:1002E00001A0130000001300000013000000130021
:1002F00000001300000013000000130000000100C4
:0803000073005010F5BF00006E
:10034000411122C406C6EF0010202A84EF40D07C61
:1003500011EDEF40D07AEF00D02001458D20EF0065
:10036000704DB24022440145410182802285EF4018
:10037000B07AC147630EF500375500201305459349
:10038000EF40F07322852244B24041016F40D078A3
:10039000375500201305C591EF407072E5B737550A
:1003A000002041111305458F06C6EF405071B787F5
:1003B0000090B24003A5071641016F007047B75582
:1003C0000020370500204111014791461306002007
:1003D000938585901305E53906C6EF00F03FB240DE
:1003E000B787009023A0A71641018280B7870090AD
:1003F000938707202A87138607018843910709C539
:10040000834605006385E600E399C7FE01458280C7
:10041000011106CEA307B10019C91C49DC4781CFE1
:100420001306F10085458297F24005618280F24013
:100430000945056182801D45C5BF011122CC52C40A
:1004400006CE26CA4AC84EC62E84328AEF30004EE7
:1004500035C1B7840090938444169C40A1CB630EB1
:100460000A02B3094401294901A8A68537350110BC
:10047000EF00302163033403834404000504E39652
:1004800024FFB54537350110EF00B01FA68537357D
:100490000110EF00101FE31134FF5285F240624457
:1004A000D2444249B249224A0561828001453D3F1A
:1004B00088C075B77D55DDB77D5582807D558280BA
:1004C00005458280014582807D55828000000000C4
:1004D000000000000000000000000000000000001C
:1004E000000000000000000000000000000000000C
:1004F00000000000000000000000000000000000FC
:10050000731191345D7106C012C216C41AC61EC89A
:100510002ACA2ECC32CE36D03AD23ED442DC46DE87
:10052000F2C0F6C2FAC4FEC673D0E57E7350F67E02
:1005300073D0B67E732520348A85EF001004D25222
:100540007390427CC25273901234B2527390223430
:1005500082401242A2423243C2435245E2457246B1
:1005600082561257A2576258F258064E964E264FA0
:10057000B64F6161731191347300203000000000A8
:10058000731191345D7106C012C216C41AC61EC81A
:100590002ACA2ECC32CE36D03AD23ED442DC46DE07
:1005A000F2C0F6C2FAC4FEC673D0E57E7350F67E82
:1005B00073D0B67EF390D07E73700430D2527390B5
:1005C000427CC25273901234B252739022348240F1
:1005D0001242A2423243C2435245E245724682561B
:1005E0001257A2576258F258064E964E264FB64FF3
:1005F0006161731191347300203001A01300000079
:1006000097020170938202A07390023417810070E8
:10061000032181B60241824273901234D652739004
:1006200002309240A2423243C2435244E2447245F5
:1006300082551256A2563257C2575258E258725932
:100640008649164AA64A364BC64B564CE64C764D62
:10065000865D165EA65E365FC65F13018107730076
:1006600020300100130181F806C216C41AC61EC844
:1006700022CA26CC2ACE2ED032D236D43AD63ED872
:1006800042DA46DC4ADECEC0D2C2D6C4DAC6DEC802
:10069000E2CAE6CCEACEEED0F2D2F6D4FAD6FED852
:1006A000F322003096DA9782007083A2E2AC23A096
:1006B0002200F322103416C0EF00601497820070FD
:1006C00083A282AB03A10200824273901234D652FD
:1006D000739002309240A2423243C2435244E244F9
:1006E000724582551256A2563257C2575258E25896
:1006F00072598649164AA64A364BC64B564CE64CAA
:10070000764D865D165EA65E365FC65F1301810775
:1007100073002030B707009003A707064111B70602
:10072000009002C6FD5783C646066309F700B70767
:10073000000CA385D7000F00F00F01A0B707000C35
:10074000A385D7000F00F00FB24799E773F000813F
:1007500073005010B247FDDB41018280916793879F
:100760000788232EF5FEB7070020938747712322C1
:10077000C5FA2326F5F82324B5F8130585F88280F9
:10078000B70600909386460683C706003706000C1E
:10079000A305F6000F00F00F3707009013070706B8
:1007A0001C43854585071CC36383B700828083474C
:1007B000B60003C7060093F7F70FE309F7FEA3059A
:1007C000E6000F00F00F01A0B7070090938707061F
:1007D000984301EFB707009003C74706B707000C1F
:1007E000A385E7000F00F00F01A07D1798C319E75C
:1007F000B707000CA38507000F00F00F8280B70732
:10080000009003C74706411106C6B707000CA38531
:10081000E7000F00F00FF32740F19DE337170002C8
:100820008327C7FFF99B232EF7FEEF10802EB70713
:10083000000CA38507000F00F00FB2404101828039
:10084000371700028A07BA97014798C3EF10602C48
:10085000B707000CA38507000F00F00FB24041015D
:100860008280B707009003C74706011106CEB7077D
:10087000000CA385E7000F00F00FC129B787EB51EB
:100880009387F7513335F502370700021581930737
:100890004700944336C2144336C49C433EC6924636
:1008A000B2476384F60018433AC432472246B3067F
:1008B000C500B3B7A600BA976379F706732740F16E
:1008C00021C7375600020E0732977D5610C3130614
:1008D00047001CC214C3EF10E02111CDF32740F1F3
:1008E00095EF371700028327C7FF93E71700232EE2
:1008F000F7FE0F00F00FB707000CA38507000F00ED
:10090000F00FF2400561828037070002130687006E
:10091000FD550CC231071CC314C275BF3717000246
:100920008A07BA97054798C3E9B76394E700E36776
:10093000D6F881463707000214C39307470094C3D3
:1009400014C3F32740F189EB930687007D5690C2CC
:1009500031071CC388C241B7375700028E07BA97C8
:100960007D5798C31387470014C388C3ADB70111DF
:1009700006CEE12EB787EB519387F7513335F50259
:1009800037070002158193074700944336C214438A
:1009900036C49C433EC69246B2476384F600184371
:1009A0003AC43247A247B386A700B3B7F600BA9756
:1009B000732740F16310071A3707000213068700F8
:1009C000FD550CC231071CC314C2B717000C03C776
:1009D000E701B706000C1377E70F238FE70003C783
:1009E000E7011377F70F238FE70083C70600D8428C
:1009F0008583BD8B95C755833D8B13F6F70FBA865C
:100A000063E9E7163717000C8347F701B397D70060
:100A100093F7F70FB3D7D74093F7F70FA30FF7006C
:100A20003717000C8347D701814693F7F70F93E7F9
:100A30001700A30EF7003707000214C393074700FF
:100A400094C314C3F32740F1FDEB930687007D5652
:100A500090C231071CC388C2B716000C83C7D601E9
:100A60003707000C93F7E70FA38EF60083470700C4
:100A700058438583BD8B95C755833D8B13F6F70F80
:100A8000BA8663E6E70E3717000C8347F701B39782
:100A9000D70093F7F70FB3D7D74093F7F70FA30F0C
:100AA000F700B717000C03C7E701B706000C137770
:100AB000E70F238FE70003C7E7011377F70F238FB3
:100AC000E70003C7D7011377F70F13671700A38E4B
:100AD000E70003C7E7001377E70F2387E70003C7A3
:100AE000E7001377F70F136717002387E70083C723
:100AF0000600D8428583BD8B95C755833D8B13F681
:100B0000F70FBA8663E3E7063717000C8347F70051
:100B1000B397D70093F7F70FB3D7D74093F7F70FF3
:100B2000A307F7003717000C8347D70093F7F70F99
:100B300093E71700A306F700F2400561828037575C
:100B400000028E07BA977D5798C31387470014C3D6
:100B500088C319B7375600020E0732977D5610C367
:100B6000130647001CC214C38DB5B28671BFB2868E
:100B700019BFB28641BD01113707000C06CE22CC49
:100B800026CA83470700584385835583BD8B137658
:100B9000F700BE866373F600B2868547B397D70029
:100BA000FD172147158FB704009013F6F70F9D46E8
:100BB0001377F70F9384440663F3C6009D47854679
:100BC000B396E60093F7F70FB397E7001387F6FFA6
:100BD000D98F2380F4003707000C83470700584360
:100BE00085835583BD8B9375F70037860090BE864D
:100BF00063F3F500AE868547B397D700FD1793F6EC
:100C0000F70F1D476373D7009D472304F6167370D3
:100C1000043037040090A13BB787009005471304C8
:100C200004062388E71623200400D93AEF00706EEB
:100C3000184002C6FD57630BF70003C70400B7074F
:100C4000000CA385E7000F00F00F01A003C704000C
:100C5000B707000CA385E7000F00F00FB24799E734
:100C600073F0008173005010B247FDDBF240624424
:100C7000D244014505618280F327203463CD07000B
:100C8000B707009003C74706B707000CA385E70026
:100C90000F00F00F01A0D207D18345476374F70618
:100CA0003706000C03470600544205833D8B39CBC1
:100CB000938707408A07B29783C73700D582BD8ADA
:100CC000B78500901375F70F93F7F70F13F6F60F2C
:100CD0006374D7001376F50F21473306C740B3D7A7
:100CE000C74003C7851693F7F70F637DF700B70773
:100CF000009003C74706B707000CA385E7000F0065
:100D0000F00F01A0828037550020130585946F20D5
:100D1000703BB7070090938787071CC193874707ED
:100D20009CC1930700101CC28280B7070090938774
:100D300087071387474718C19387874E9CC193073E
:100D400000101CC282800145828001116C00A167E5
:100D50001305000206CE3EC6D928F2403245056191
:100D600082808280AA85375500204111130585961F
:100D700006C6EF20303501A082808567FD173377E6
:100D8000F500AD4663E1E602B7870090938707213F
:100D90000A073E971C438DC7411106C68297B24091
:100DA000014541018280630FF7004111B717002010
:100DB00006C6938747D68297B2400145410182809B
:100DC00001458280B787009083A70724F1F7CDBF44
:100DD00073E0A07CC16773A0A77C0F00F00F0F1019
:100DE0000000B7870090938707213717002093866C
:100DF0004703130747D698C39107E39ED7FE3707EB
:100E0000000CA30507005C4383460700D18393F6DB
:100E1000160E2300D70083460700F98B93F6F60FD2
:100E2000D58F2300F7008280828082808280B787FE
:100E3000009003C79716AA8705C30D4563FFE70017
:100E4000378700900327C7166145B387A702BA9773
:100E50009C4701459CC1828005458280AA8705C1C7
:100E60002167B355B7020145FD158CCF984713672D
:100E7000170098C7D84713671700D8C782807D55D9
:100E8000828019C51C41E3CF07FE0CC10145828059
:100E90007D5582805D713A83A2C4CAC086C6A6C24F
:100EA0004EDE52DC56DA094E3E842E87B287C2856A
:100EB0002A891A8646886382C6038144C646A2856B
:100EC0004A85EF3070782695B64026449644064908
:100ED000F259625AD25A61618280A9466300D302F4
:100EE000E9DDC6463EC43AC246C61AC0EF30D075E8
:100EF0003248A24712470246AA84C9B7B366B40073
:100F0000AE84D9C6C64689CE82C863DB0500B33538
:100F10008000B304904085468D8C33048040B6C871
:100F2000A30601029309D102A54A294681462285DA
:100F3000A6853EC23AC0EF20202B13080503A685E4
:100F4000228529468146A38F09FFEF10F073A686FC
:100F50004E8A228602479247FD192A84AE84F1F612
:100F6000E3E5CAFCC64681CE01C793F627009DEA99
:100F70009306D002A38FD9FE82C89309EAFFBE86EA
:100F80003A86CE854A85EF30B059C6473E952DBF8B
:100F9000BE863A86930700032C08231CF100EF302D
:100FA00030581DB7630F0900832609001306D002CD
:100FB0002380C600832609007D1785062320D900DB
:100FC0007DBF9305D00201453EC23AC0EFF04FC449
:100FD000024792477D1765B7011136884206BA86E7
:100FE0007C004287418222CC06CE26CA2E84EF00A6
:100FF000300685476319F500B244F2406244268505
:10100000D24405618280B707009083A78706814498
:10101000E355F0FE2A8637550020A285130585ACDE
:10102000EF40E029F24062442685D2440561828087
:101030006F00B0096F00701D011122CC26CA06CEC8
:101040004AC84EC652C42A84EFF08FF3B787009087
:10105000938787189843B7840090050798C39384B3
:101060004417984051CB378900901309C91A832738
:1010700009004854A5CFB789009093894924378740
:101080000090130747191C43B78600909386861972
:10109000850790421CC37CC06373A60088C2D147F9
:1010A0003305F502930544004E95EF001053EFF021
:1010B000AFF1832709009DC398405C545857637F64
:1010C000F700F32740F1A1EB371700028327C7FF92
:1010D00093E71700232EF7FE0F00F00FF240624453
:1010E000D2444249B249224A056182809C40DC5781
:1010F000E363F5F880C041B780C098438547630536
:10110000F702B789009037890090485493894924A1
:101110001309C91AADB7371700028A07BA970547EE
:1011200098C30F00F00F5DBF3789009093094924E1
:10113000138A090A130949244A855109EF005048C6
:10114000E31C2AFFB78700901385472E138A472E8A
:10115000EF001047B78700901385872F1389872FDB
:10116000EF001046378500901305C530EF0050455D
:101170003785009013054533EF0090443785009084
:1011800013050532EF00D04337870090B7870090F2
:10119000232C471723AE271737890090485413098B
:1011A000C91AF1BD011126CAB7840090B787009013
:1011B000938444174EC683A9071B9C4022CC2A84E3
:1011C000138547004AC806CE2E89EF009045FD578B
:1011D000630CF4049C404E94C0C363693403B78726
:1011E000009003A587178C409105EF00B040B787AA
:1011F00000909387071A98436373E40080C3F2401A
:101200006244D2444249B24905618280B787009066
:1012100003A5C71762448C40F240D2444249B24908
:10122000910505616F00103DE30609FA8C406244A8
:10123000F240D2444249B2493785009091051305E6
:10124000053205616F00703937870090232A071A2D
:10125000B787009003A7071B4111B787009022C4EE
:101260009387471806C698C3378700901307071857
:101270009443104337840090130444176378D600D6
:1012800088430C40B455918EAA96B4D5904314402F
:101290001C4094429C5B10C363F9D706B78500904D
:1012A000938585199C41B7860090514793864624C3
:1012B0003387E7023697184319EB8DCF514611A0BB
:1012C00095CBFD173387C7023697184375DB514717
:1012D0003387E7023385E600504121075042BA9632
:1012E00050C1630AD6025846B24018C022449CC17D
:1012F00041018280B707009003C74706B707000C7B
:10130000A385E7000F00F00F01A008400C40938573
:101310004503D53A61B75042B240584650C118C053
:1013200022449CC14101828001114EC652C49319CE
:1013300026002A8A0325080322CC4E862E84930594
:10134000500A26CA4AC856C25AC0C2843E8B06CE2C
:10135000B68A3A89EF20E0349C58F119BE9993F986
:1013600089FF45C0A285138844039307040183C8FD
:101370000500850523001801638508000508E3982A
:10138000F5FEA38104049D4763F327011D491385DE
:10139000440023A6240323A6240523A80404EF0065
:1013A000702313858401EF00F022A1473384274185
:1013B0005146814584C880CCC4D023A4040613853B
:1013C0004405EF20002E568623860406A3860406D5
:1013D00023870406A387040623880406D2854E8546
:1013E000EFF0CFB788C063040B0023209B00F240CE
:1013F0006244D2444249B249224A924A024B0561B0
:101400008280238A040241B7797122D426D24AD03D
:1014100052CC3784009037890090B7840090378A87
:1014200000904ECE56CA5AC85EC606D662C4130491
:10143000C4181309493393848418130A4A2485492C
:10144000894A854B371B00021C40B1CFEFF04FB3E8
:101450008327C90003ACC70013054C00EF00701CC4
:101460009C40FD179CC01C40FD171CC0EFF0CFB581
:1014700083471C0785C363883705E38757FDB70794
:10148000009003C74706B707000CA385E7000F00CD
:10149000F00F01A003250C03EF1020046285EF106C
:1014A000C0031C40C5F783270A00E3FFF9F8F327C0
:1014B00040F191EF8327CBFF93E71700232EFBFE2C
:1014C0000F00F00F51B76285EF102001B5BF8A07FA
:1014D000DA9723A077010F00F00FBDB7B787009010
:1014E00079719387071B4AD003A9070006D622D437
:1014F00026D24ECE52CC56CA5AC85EC662C466C206
:10150000050923A027016306090EB78C0090938C70
:101510000C1A83A70C006364F908B78900909389BB
:10152000891783A70900378A00909C43B78A0090E7
:10153000014B130A4A24938A4A17F1CF378C009043
:10154000D14B89A0EF00F00D1C541305840199C301
:10155000EF00300D5C5413078C1914433385770367
:10156000A685529563F3F6001CC3EF00100783A70E
:101570000A005854DC576363F700054B83A7090042
:101580009C43D1CB83A70900DC47C0475C40930450
:1015900044002685E378F9FA23A0FC0011A8378AD5
:1015A0000090B78A0090014B130A4A24938A4A1785
:1015B00083A70A00D146DC570547B387D7023E9A76
:1015C00083270A006373F700054BB787009083A752
:1015D000471B91C3054BB250225492540259F24911
:1015E000624AD24AB24B224C924C5A85424B4561D8
:1015F0008280B7870090938787179843184305C365
:10160000B707009003C74706B707000CA385E7009C
:101610000F00F00F01A0FD5723A0FC0051BF37873A
:1016200000901307C7179443104390C314C3378720
:1016300000901307471A1443850614C398431843B0
:1016400009EBB78C0090938C0C1AFD5723A0FC007B
:10165000C9B59C43B78C0090DC47938C0C1A9C4313
:1016600023A0FC007DB5797126D2B78400909384C5
:10167000041906D622D44AD04ECE52CC56CA5AC8E5
:101680005EC662C466C2EFF0AF8F9C40FD179CC07F
:101690009C40639F070EB787009083A787186389D4
:1016A000070EB78900909389C93083A70900B78BCB
:1016B0000090638D0710378A0090378B0090B78AAF
:1016C0000090130A8A19130B4B24938A4A17938BA1
:1016D0004B1B514C854C83A7C900C047130584019F
:1016E000EF002074130944004A85EF0080735C54B6
:1016F00003270A0033858703CA855A956374F70068
:101700002320FA00D92D83A70A005854DC576364BC
:10171000F70023A09B0183A70900D5FFB78700909E
:10172000938787179843184349C79843B787009012
:101730005847184323A0E71A378900901309891ADC
:101740000324090005C4854939A0493B19C123A0D8
:101750003B017D1411C89C40EDDB832709007D14FB
:1017600085072320F90065F82320090083A70B00D3
:1017700085C3F32740F1A1E7371700028327C7FF8E
:1017800093E71700232EF7FE0F00F00F054411A07A
:101790000144EFF06F83B2502285225492540259D3
:1017A000F249624AD24A424BB24B224C924C4561BA
:1017B0008280B78700907D5723A0E71AB5BF3717FF
:1017C00000028A07BA97054798C37DBF938B4B1BCE
:1017D000A5B7A1C7011122CC06CE4284630408023A
:1017E000BE88930740073EC632436303F304B7073E
:1017F000009003C74706B707000CA385E7000F005A
:10180000F00F01A0B707009003C74706B707000C09
:10181000A385E7000F00F00F01A0B707009003C7F2
:101820004706B707000CA385E7000F00F00F01A0E3
:101830002328180389483C00A3081807B248ED3450
:101840002285EFF06FFFF2406244224505618280FD
:1018500079714ECEAA891315260026D252CC56CACB
:101860005AC85EC606D622D44AD0B2842E8AB68A18
:101870003A8BBE8BEF00302C31C12A841305400710
:10188000EF00702B2A890DCD2A88DE875A87D686ED
:101890002686D28500D9A30805064E8571344A856F
:1018A000EFF08FF90545B250225492540259F24993
:1018B000624AD24A424BB24B456182807D55E5B7C0
:1018C0002285EF0090417D55F9BF411122C426C207
:1018D0002A84B784009006C64AC093844417EFE078
:1018E0003FEA5DCC130944004A85252B1C5481C76F
:1018F000130584013D23B7870090938747199843C8
:101900009440050798C3638F8606B7870090938736
:1019100087189843834614077D1798C395C2854757
:10192000638AF60A89476383F602B707009003C704
:101930004706B707000CA385E7000F00F00F01A0D2
:101940000858EF0090392285EF003039B7870090B2
:10195000938787179843184331E7B78700907D57DF
:1019600023A0E71AEFE05FE6B787009083A7C71AC6
:1019700081C79C4063808704B2402244924402495C
:101980004101828037850090CA8513054533B12116
:10199000B78700909387C7189843050798C3D9B7AE
:1019A000804089B79843B78700905847184323A0D1
:1019B000E71A4DBFB787009083A7071985C3B707FC
:1019C000009003C74706B707000CA385E7000F0088
:1019D000F00F01A02285EF0050308DBFF32740F1BA
:1019E00081EF371700028327C7FF93E71700232EE5
:1019F000F7FE0F00F00F49B7371700028A07BA97B2
:101A0000054798C30F00F00F85BF011170002C002F
:101A1000480006CE02C202C4EFF0AFAFA2471248A0
:101A20003246B7550020371500200147814693857F
:101A3000C5AE13058540713BB787009023AEA7184C
:101A400015CD712185476310F504B707009003C7D2
:101A50004706B707000CA385E7000F00F00FB78714
:101A60000090FD5623A0D71A37870090B7870090C3
:101A70002326A71A23A8071AEFF0EF8FF24083A7B7
:101A8000C18005618280FD57E31AF5FEB70700901B
:101A900003C74706B707000CA385E7000F00F00F48
:101AA00001A0B7870090938707199843050798C34B
:101AB0008280B787009083A7071981EFB70700904E
:101AC00003C74706B707000CA385E7000F00F00F18
:101AD00001A051BE411106C622C4EFE07FCAB787FC
:101AE000009003A4071BEFE03FCEB24022852244C2
:101AF00041018280B787009083A7071991E3F9BA63
:101B0000B78700909387871A98430145050798C3C4
:101B10008280B787009083A7071999C7B78700907D
:101B2000054723AAE71A82806FF00FF215C1411111
:101B3000B787009022C42E8483A5471706C6E10507
:101B4000552C22852244B240854541016FF08FE536
:101B5000B707009003C74706B707000CA385E70047
:101B60000F00F00F01A01DC54111B787009026C2DC
:101B7000AE8483A5471722C4E105328406C6B12C82
:101B800011C0FD54A2852244B240268592444101F1
:101B90006FF04FE1B707009003C74706B707000C87
:101BA000A385E7000F00F00F01A05C45411122C49E
:101BB000C04706C626C225CC9304840126859524F9
:101BC000B787009083A707199DCB37850090A6851E
:101BD0001305C5301924B787009083A747175854B9
:101BE000DC57014563F8E700B7870090054723AA53
:101BF000E71A0545B2402244924441018280930491
:101C000044002685392C37870090130787195C54C8
:101C1000144363F3F6001CC3514737850090B38724
:101C2000E70213054524A6853E95452A6DB7B707FB
:101C3000009003C74706B707000CA385E7000F0015
:101C4000F00F01A037870090B78700900327471A4D
:101C500083A7071B18C15CC1828025C9411126C218
:101C600006C622C44AC0AE84B1C52A84EFE05FB183
:101C7000B78700909387071B98409043FD56014912
:101C80006301D702B78600909386461A88420328DC
:101C900004004C406306A8046364B60423A0040057
:101CA0000549EFE07FB2B240224492444A8502499E
:101CB00041018280B707009003C74706B707000CB1
:101CC000A385E7000F00F00F01A0B707009003C73E
:101CD0004706B707000CA385E7000F00F00F01A02F
:101CE0003305B640E37CE5FA118F94422E979C436E
:101CF00098C014C05CC001496DB7B7870090054714
:101D000023AAE71A8280B787009083A7C71A0545E0
:101D100081CBB787009003A5071913351500060579
:101D2000828025C14111B787009022C403A44717C0
:101D300006C626C2630DA400B707009003C7470676
:101D4000B707000CA385E7000F00F00F01A03C4887
:101D500091CFFD17545478443CC86383E60085C78F
:101D60000145B2402244924441018280B70700906D
:101D700003C74706B707000CA385E7000F00F00F65
:101D800001A00145828093044400268559287C44A3
:101D90003787009013078719A1469D8E10435CD4A6
:101DA00014CC6373F6001CC3514737850090B3878A
:101DB000E702130545243E95A6850520054555B740
:101DC000930785007D575CC118C55CC51CC92320DD
:101DD000050082802328050082805C41984798C5D1
:101DE0009847DCC14CC318418CC788C993071700BA
:101DF0001CC1828090417D57930785006300E602F5
:101E0000BE86DC439843E37DE6FEDCC18CC71C4103
:101E100094C5CCC288C985071CC182801449DC42A4
:101E2000EDB71C4954411845D04398C654C36309C3
:101E3000A6009843232805007D1798C38843828015
:101E4000D8C39843232805007D1798C38843828010
:101E5000411122C43784009006C626C24AC013042A
:101E6000441CEFE0FF911C4081CB2244B2409244DD
:101E7000024941016FE05F95B78700901385874362
:101E800013898743353FB78700901385C7449384F0
:101E9000C7443D37B7870090B786009037860090DB
:101EA00023AC271B0147B78700909386064613068D
:101EB0008634C1453D4523AE971AEF00501808C03F
:101EC0002244B2409244024941016FE0FF8F011168
:101ED00006CEBD3FB787009083A7471CA1C3700003
:101EE0002C00480002C202C4EFE03FE4A2471248BF
:101EF0003246B7550020372500201D47814693857F
:101F000085AF1305C504EFF0DF8CB787009023A4DD
:101F1000A71C09C5F240054505618280B7070090FE
:101F200003C74706B707000CA385E7000F00F00FB3
:101F300001A029C5011122CC378400901304441C50
:101F40008328040006CE26CAAA87014563830802B7
:101F50003EC42EC032C2954763CDB702BA84653302
:101F600089476304F5040840814601468A85EF00ED
:101F7000D019F2406244D24405618280B7070090D4
:101F800003C74706B707000CA385E7000F00F00F53
:101F900001A036888A85814642864685EF009037C3
:101FA000F2406244D2440561828008408146268620
:101FB0008A85EF00901575BF01114AC837890090D6
:101FC00006CE22CC26CA4EC61309891B05A0DC47C3
:101FD000C04783A9070093044400268599351C5007
:101FE0002285829783478402918B85E783270900A6
:101FF000984371FF378700901307C71B1443F240C3
:1020000062442320D9001CC3D2444249B24905612D
:1020100082801C4C0147CE9781464E8681452285A1
:1020200063F9F900032509005CC000C8A685D9330F
:1020300075BF013745FDB707009003C74706B707CF
:10204000000CA385E7000F00F00F01A05D71A6C290
:10205000CAC04EDE52DC5AD8B7890090378900904A
:10206000378B0090B7840090375A002056DA5ED63E
:1020700062D486C6A2C466D26AD06ECE9389891B0A
:102080001309091C130BCB1B9384441C130A4AB07D
:10209000054CB71B0002A54A83A7090083AC0700C3
:1020A00063800C14DC4783AC0700EFF09F9FEFF0D8
:1020B0007FA2832709002A846365F5142320A900E1
:1020C0000146637F95158840B3858C40EF0010551D
:1020D000EFF03F9E09EDF32740F1639C071283A7C1
:1020E000CBFF93E7170023AEFBFE0F00F00F8840F5
:1020F00001468A85EF00703645D18247224463C885
:10210000070C5C4881C713054400213BEFF09F9CFE
:1021100083270900AA8C636CF50E8247232099015E
:10212000E3E7FAFC8A07D2979C43828783478402BD
:102130009246104C93E717003387C6002304F4023D
:1021400058C000C863E6EC10B38CDC4063E2CC14EA
:102150001C502285829783478402918BC9DB1C4CDB
:102160001246014781463E9681452285D93341F189
:10217000B707009003C74706B707000CA385E70021
:102180000F00F00F01A00347840292471367170066
:102190002304E4021CCC63890712E6975CC000C8E4
:1021A0009305440063E0FC0C03250B00A13181B7CB
:1021B00083478402F99B2304F40215BF83478402FA
:1021C00013F7270045C7F99B2304F4020DB7924784
:1021D000B245228582978247E3CB07F0224415B7A8
:1021E000EFF03F8CEFF01F8F832709002A84636A8A
:1021F000F50083270B002320890090431336160037
:10220000D9B55D3B23208900EFF0BF8ACDB56D3392
:1022100029B78A07DE9723A087010F00F00FC1BD01
:10222000EFF03F8983A70900DC4703ADC700930D9A
:102230004D006E85FD3683478D0213F7470015EB81
:10224000F99B2304FD0283270D026A85829745B519
:1022500063F4DC00E37ED7EE03A509009305440098
:10226000513E71B503A50900713651B52285B524DB
:10227000BDBD03278D012328AD01B387EC002322C8
:10228000FD00637DF40003A50900EE85A53665BF5A
:1022900003250B0093054400B13E91BD33049441E6
:1022A000636FE40201478146668681456A85513144
:1022B00059F9B707009003C74706B707000CA38575
:1022C000E7000F00F00F01A0B707009003C7470613
:1022D000B707000CA385E7000F00F00F01A003254E
:1022E0000B00EE85013E85B7B78700909387471EA8
:1022F0003E879C43E3EEA7FE50435441B305C7001D
:102300006307B5023306D5006387C7001CC16303AA
:10231000E50008C38280378600900326C61CE38749
:10232000C7FED0439C43B29654C11CC1CDB7B296F0
:1023300054C33A85C1BF011122CC06CE26CA4AC871
:102340004EC652C42A84EFF0CFF5B787009093852C
:10235000C71C9C4163880710B787009083A4071DA2
:10236000B3779400E1E79307F4FF59576360F70CE4
:10237000137774009307840041EFB7890090938925
:10238000491D03AA09006363FA0A378600900324F3
:10239000461E1306461E29A0184011C722863A84FD
:1023A0005440E3EBF6FE9841630287080C40032992
:1023B00006003387F6400CC2414621096364E608F3
:1023C000B78700909387871D330ADA40984323A08C
:1023D00049016374EA0023A04701B78700909387FF
:1023E000C71D9843C58E050754C02320040098C319
:1023F000EFF02FEC937779008DCFB707009003C7EC
:102400004706B707000CA385E7000F00F00F01A0F7
:1024100013F787FF210763FBE700B78900909389D3
:10242000491D03AA0900BA87E371FAF6EFF06FE8D5
:102430000149F2406244D244B249224A4A854249A3
:10244000056182803305F40093767500D1C2B70729
:10245000009003C74706B707000CA385E7000F00ED
:10246000F00F01A0B71600909387069613F7770038
:1024700039CB13877700619BBA861D661306867F6A
:10248000B297E19B3786009023A0070023A20700A4
:102490001306461E2322060014C23387E7409CC160
:1024A0009CC2B787009023ACE71CB787009023AA93
:1024B000E71CD8C2B78700903707008023A8E71C25
:1024C000B704008071BD138706969386069675B78C
:1024D00058C15CC0113D5440E5B539C1B787009083
:1024E0000327C5FF83A7071DB376F70099CE832680
:1024F00085FF85CAB707009003C74706B707000CDA
:10250000A385E7000F00F00F01A0B707009003C7F5
:102510004706B707000CA385E7000F00F00F01A0E6
:102520008280011193C7F7FF06CEF98F232EF5FEA7
:102530002AC6EFF00FD73245B78700909387471D23
:1025400094430327C5FF6115369798C3713BB7873E
:1025500000909387071E9843F240050798C30561D2
:102560006FF02FD541113C4122C426C206C6045D3E
:102570004AC02A8481EF1C4185040145A5CF04DCB3
:10258000B2402244924402494101828032891DE6D0
:1025900048413E86EF1020035C4034401844B69713
:1025A0005CC085040145E3ECE7FC1C4004DCB24060
:1025B0005CC02244924402494101828048453E86E3
:1025C000EF10600038405C441440998F5CC43307BE
:1025D000E04063F5D7001C443E9758C48947630127
:1025E000F902850404DCB2402244924402490145C8
:1025F000410182800844EFF0CFF22324040041B768
:1026000099C00145ADBF8544014595BF011122CC5C
:10261000204506CE26CA4AC82AC61DC8185C5C5C7E
:10262000637DF700185C8144636FF702F2406244F7
:1026300042492685D24405618280B707009003C7CE
:102640004706B707000CA385E7000F00F00F01A0B5
:10265000B707009003C74706B707000CA385E7003C
:102660000F00F00F01A00349540401466C002285BD
:10267000D53D93178901E1877D57AA84638DE700D3
:102680001307F0076382E70293071900E207E18767
:10269000A302F40461BF5C50D1DB13054402EFF0E8
:1026A000CFD049D5854459B7B707009003C747062F
:1026B000B707000CA385E7000F00F00F01A0411140
:1026C00022C426C206C6AA844AC0EFE06F8B83C725
:1026D0005404139487016184635280041389440273
:1026E00019A82D3715E19307F4FF1394870113F709
:1026F000F70F618405C7BC442685E5F7DC504A85A1
:1027000091CFEFF08FCA65D1EFF02FDF9307F4FF81
:102710001394870113F7F70F618471FFFD57A382AC
:10272000F404EFE06F8AEFE0AF8583C744041394AD
:1027300087016184635D80021389040109A89307FE
:10274000F4FF1394870113F7F70F61840DC39C48BE
:102750004A8591CFEFF06FC57DD1EFF00FDA930787
:10276000F4FF1394870113F7F70F61846DF3FD579E
:102770002382F4042244B2409244024941016FE0B2
:10278000AF8439C5411122C426C22A8406C6AE844C
:10279000EFD01FFF3C40585C14403387E702232CE6
:1027A00004027D56B307F740B69736972302C40458
:1027B00018C454C05CC4A302C40495E41C48A1E737
:1027C000EFE08F80B240224492440545410182806F
:1027D000B707009003C74706B707000CA385E700BB
:1027E0000F00F00F01A013050401EFF06FDD1305DA
:1027F0004402EFF0EFDCEFD03FFDB24022449244C0
:1028000005454101828013050401EFF00FBA4DD94F
:10281000F32740F181EF371700028327C7FF93E7C3
:102820001700232EF7FE0F00F00F59BF37170002D5
:102830008A07BA97054798C30F00F00F51B701ED0B
:10284000B707009003C74706B707000CA385E7004A
:102850000F00F00F01A095C6797106D629CA8DCD5B
:10286000930740053ECE72486300F806B707009014
:1028700003C74706B707000CA385E7000F00F00F5A
:1028800001A0B707009003C74706B707000CA38550
:10289000E7000F00F00F01A0B707009003C747063D
:1028A000B707000CA385E7000F00F00F01A0B9E106
:1028B000930740053ECE7246E31AF6FAF247854783
:1028C0002383F604368629A0F24785472383F6043E
:1028D000C8DEACC290C2368585453AC636C4553589
:1028E000A246324723A406042388E604B250368564
:1028F00045618280B707009003C74706B707000C01
:10290000A385E7000F00F00F01A05D7186C6A2C489
:10291000A6C2CAC04EDE52DC56DA5AD85ED662D49F
:1029200032C6630A050C2A84AE89B684C5C98947B4
:102930006391F402585C8547630DF700B707009078
:1029400003C74706B707000CA385E7000F00F00F89
:1029500001A0EFF04FBB2A8C55C9014C094A7D59A3
:10296000930A0401854B371B0002EFD07FE1185C0E
:102970005C5C636DF70E63894413B247638307168B
:1029800063030C0AEFD05FE4EFF0AF91EFD05FDFAD
:1029900083474404E207E187639427012302040488
:1029A00083475404E207E18763942701A3020404E8
:1029B000EFD09FE16C002808EFF02FAA63170512F3
:1029C000EFD01FDC185C5C5C6303F706EFD0DFDF41
:1029D0002285F531EFF0EF8D054C41BF3C41A1DB85
:1029E000B707009003C74706B707000CA385E700A9
:1029F0000F00F00F01A0B707009003C74706B70705
:102A0000000CA385E7000F00F00F01A0B247B9D773
:102A1000B707009003C74706B707000CA385E70078
:102A20000F00F00F01A02808EFF0CFA1A1BFEFD059
:102A3000BFD9B2455685EFF06F8F22854931EFF04F
:102A40004F8759F9F32740F199EB8327CBFF93E7A1
:102A50001700232EFBFE0F00F00F054C39B78A0735
:102A6000DA9723A077010F00F00FC5BF2686CE8529
:102A7000228503298403EFF0FFAE3C449DCF8947B4
:102A8000638EF4042285593605EDEFD0FFD305455A
:102A9000B640264496440649F259625AD25A425BDD
:102AA000B25B225C616182800946CE852285032962
:102AB0008403EFF03FAB3C4495E35C50B1E771D544
:102AC000F32740F18DEB371700028327C7FF93E709
:102AD0001700232EF7FE0F00F00F45BFE30409FA9D
:102AE0006DB7EFD07FCE014565B72285C93EEFE0D7
:102AF0005FFC014571BF371700028A07BA97054787
:102B000098C30F00F00F51B713054402EFF0EF899F
:102B10002DDD7DB765C5797122D426D24AD05AC839
:102B200006D64ECE52CC56CA5EC62A842E8B328929
:102B3000B684A5CD89476391F402585C8547630D3F
:102B4000F700B707009003C74706B707000CA38537
:102B5000E7000F00F00F01A0EFE00F92B707000CA5
:102B6000370A009083C6B70003474A0693FAF60F68
:102B7000A385E7000F00F00F185C5C5C6364F7044A
:102B8000894701456380F404B707000CA38557010A
:102B90000F00F00FB250225492540259F249624A87
:102BA000D24A424BB24B456182803C41C1D7B70704
:102BB000009003C74706B707000CA385E7000F0086
:102BC000F00F01A083495404DA8526862285832BE1
:102BD0008403139B8901EFF0FF98135B8B41FD5732
:102BE0006309FB029307F0076307FB04938719004F
:102BF000E207E187A302F404054579B7B70700901F
:102C000003C74706B707000CA385E7000F00F00FC6
:102C100001A03C4495CB89476394F400E39E0BFCF0
:102C20002285EFF0BF9E69D9E30809FC8547232080
:102C3000F900054591BF03474A06B707000CA38575
:102C4000E7000F00F00F01A05C50DDD71305440230
:102C5000EFE0BFF571F9054505BF397106DE22DCED
:102C600026DA4AD84ED652D456D25AD032C6630942
:102C700005142A842E89D9CDEFF0EF884DC9EFD005
:102C80003FB0045C6391040EB247A5CB2808EFE087
:102C90007FFBFD59130A4402054BB71A0002EFD01F
:102CA000BFB2EFE01FE0EFD0BFAD83474404E207BF
:102CB000E187639437012302040483475404E20745
:102CC000E18763943701A3020404EFD0FFAF6C00E7
:102CD0002808EFE09FF82DE9EFD09FAA1C5CCDCB30
:102CE000EFD09FAE2285EFF09F9DEFE09FDCEFD00D
:102CF0003FA9045CADE8B247DDF3EFD0FFAC01457E
:102D0000F2506254D2544259B259225A925A025B3A
:102D1000216182803C41ADD3B707009003C74706CD
:102D2000B707000CA385E7000F00F00F01A0B24722
:102D3000B9D7B707009003C74706B707000CA385AC
:102D4000E7000F00F00F01A02285EFF05F97EFE0A2
:102D50005FD6EFD0FFA21C5CCDD3EFD0FFA6EFD0A3
:102D60003FA2045CC9D8304001CE4C441C44B2950B
:102D70004CC463E4F5000C404CC44A85EF00B00439
:102D8000FD1404DC1C48B9EFEFD01FA405458DBF2E
:102D9000EFD09FA3B2455285EFE05FD92285EFF0D7
:102DA0001F92EFE01FD145FDF32740F18DE783A788
:102DB000CAFF93E7170023AEFAFE0F00F00F45B7E6
:102DC000B707009003C74706B707000CA385E700C5
:102DD0000F00F00F01A08A07D69723A067010F000C
:102DE000F00FB5BF13050401EFE03FDC51DDF32721
:102DF00040F181EF371700028327C7FF93E71700E1
:102E0000232EF7FE0F00F00F41B7371700028A0795
:102E1000BA97054798C30F00F00FBDB7411122C400
:102E200026C24AC02A8406C6AE843289EFD05F9596
:102E3000834744047D57E207E1876394E700230258
:102E40000404834754047D57E207E1876394E70055
:102E5000A3020404EFD05F971C5C89CB2285224437
:102E6000B2409244024941016FF07F85130544024C
:102E70004A86A685EFE03FCF22852244B2409244A5
:102E8000024941016FF0BF83AA88AE873288368538
:102E900046836396062097260000938666C963FFE3
:102EA000C50A41676375E60A1307F00F3337C70099
:102EB0000E073355E600AA9683C6060013050002E6
:102EC0003697B306E540630BE500B395D70033D7DB
:102ED000E8003318D600D98D3393D80093580801F1
:102EE000B3D615031316080141829357030133F734
:102EF00015033685B305D6024207D98F63FCB700A8
:102F0000C2971385F6FF63E7070163F5B7001385E2
:102F1000E6FFC2978D8F33F7170342031353030164
:102F2000B3D71703420733636700B306F6023E8642
:102F3000637BD30042931386F7FF636603016374D8
:102F4000D3001386E7FF4205518D81455DA8370503
:102F500000014147E36FA6F46147A1BF01E60547C1
:102F60003358C7024167637FE8081307F00F6373A4
:102F7000070121453357A800BA9603C70600130678
:102F800000022A97B306E6406315E608B3870741B7
:102F90008545935808011316080141821357030110
:102FA000B3F61703B3D71703C206558F330EF602D5
:102FB0003E85637CC70142971385F7FF636707016E
:102FC0006375C7011385E7FF42973307C741B3779E
:102FD000170342031353030133571703C20733E3A5
:102FE0006700B306E6023A86637BD300429313067A
:102FF000F7FF636603016374D3001306E7FF42051E
:10300000518D8280370700014145E365E8F661454F
:1030100095B73318D80033D5E7003393D800B3976A
:10302000D70033D7E800935808013366F7003377A9
:10303000150393170801C1839355060133551503F2
:1030400042074D8FB386A702AA85637CD7004297BB
:103050009305F5FF636707016375D7009305E5FFE7
:103060004297B306D74033F7160342064182B3D6E0
:10307000160342073385D702B367C700368763FC60
:10308000A700C2971387F6FF63E7070163F5A70060
:103090001387E6FFC297C205898FD98DDDBD63E234
:1030A000D514416763FFE6021307F00FB335D7006D
:1030B0008E0533D5B60017270000130767A72A9798
:1030C00003470700130500022E97B305E54063117F
:1030D000E5020545E3E7F6F233B5C80013451500F0
:1030E0000DB737070001C145E3E5E6FCE145D1B77F
:1030F0003358E600B396B6003368D80033D3E70000
:10310000935E0801B376D303B397B70033D7E800D3
:10311000331EB6003366F70093170801C1831357B7
:1031200006013353D303C206558F338F67021A85C6
:10313000637CE70142971305F3FF6367070163753B
:10314000E7011305E3FF42973307E741B376D7035F
:103150003357D703C2063383E70293170601C183AF
:10316000D58F3A8663FC6700C2971306F7FF63E7C3
:10317000070163F567001306E7FFC2974205C16EBA
:10318000518D9386FEFF13560E0113580501B38728
:1031900067403373D500B376DE00330ED302B30637
:1031A000D80213570E013303C30236931A9733081C
:1031B000C8026373D700769893560701369863E088
:1031C0000703E39407D9C167FD177D8F4207337E5C
:1031D000FE00B398B80072978145E3F4E8E27D15EC
:1031E000ADB38145014531BD2A833288B6872E872C
:1031F0006395061C972600009386869363F6C50A9E
:10320000C168637C16099308F00F63F3C800A147F7
:10321000B358F600C69683C60600B697930600021A
:10322000B388F640638CF600B3951501B357F300ED
:103230003318160133E7B70033151301935508010E
:10324000B377B7021316080141829356050133572D
:10325000B702C207DD8E3307E60263F8E600C296C6
:1032600063E5060163F3E600C296998EB3F7B602F2
:1032700042054181B3D6B602C2075D8DB306D602C0
:103280006378D5004295636505016373D500429567
:10329000158D3355150181458280B7080001C1475E
:1032A000E36816F7E147ADB701E605473358C702B3
:1032B00041676373E8081307F00F63730701A147C1
:1032C0003357F800BA9603C606003E9693070002ED
:1032D000B388C7406399C706B38505419356080173
:1032E00093170801C1831356050133F7D502B3D5EF
:1032F000D5024207518FB385B7026378B700429772
:10330000636507016373B7004297B305B74033F7AE
:10331000D50242054181B3D5D502B385B7029317D3
:1033200007015D8D6378B5004295636505016373A0
:10333000B50042950D8DB1BF37070001C147E3616C
:10334000E8F8E147B5BF33181801B3D6C500935765
:10335000080133F7F602B39515013356C3004D8EBD
:1033600093150801C1813315130113530601B3D618
:10337000F602420733676700B386D5026378D70049
:103380004297636507016373D7004297B306D7403E
:1033900033F7F60242064182B3D6F6024207B386FD
:1033A000D502B365C70063F8D500C29563E5050192
:1033B00063F3D500C295958D15B7E3EFD5ECC167E2
:1033C00063F4F6049308F00FB3B7D8008E07B3D8B0
:1033D000F600171800001308A875469883480800DF
:1033E000BE9893070002338817416396170363E47E
:1033F000B6006369C3003305C340958D3337A3001E
:103400003387E540BA8549BD37080001C147E3E08D
:1034100006FDE1476DBFB3571601B396060133EEC3
:10342000D70033D71501135F0E01B31E06013376A3
:10343000E703B3950501B3571301CD8F93150E0123
:10344000C1813315030193D607013357E7034206C1
:10345000D18E3383E5023A8663FC6600F29613064A
:10346000F7FF63E7C60163F566001306E7FFF29610
:10347000B386664033F3E603B3D6E60342033387ED
:10348000D50293950701C181B365B300B68763FC8C
:10349000E500F2959387F6FF63E7C50163F5E50064
:1034A0009387E6FFF2954206416F5D8E9306FFFF1C
:1034B0003373D600998D418213D70E01B3F6DE0027
:1034C000B307D302B306D6023303E3023306E602A0
:1034D000369313D707011A976373D7007A969356DA
:1034E0000701B29641667D16718F4207F18FBA9738
:1034F00063E6D500639BD5006379F5003386D74139
:10350000B3B7C700F2979D8EB287B307F540333546
:10351000F500958D898DB398150133D5070133E5F5
:10352000A800B3D505018DBBAA858146014601459A
:1035300001A1411122C426C2172400001304A4EFE4
:1035400097240000938424EF058C06C6098411E4B7
:10355000B24022449244410182807D14931724009A
:10356000A6979C438297E5B7411122C426C217242F
:103570000000130444EC972400009384C4EB818C76
:103580004AC006C6898401496315990217240000C0
:10359000130464EA972400009384E4E9818C89840D
:1035A0000149631D9900B2402244924402494101FD
:1035B00082801C40050911048297F9B71C40050957
:1035C00011048297F9BFB3C7A5008D8BB306C50060
:1035D00081E78D4763EEC700AA876371D50603C7ED
:1035E000050085078505A38FE7FEE3EAD7FE828005
:1035F00013773500AA8711CB03C70500850785051A
:10360000A38FE7FE13F73700FDB713F7C6FF3308A4
:10361000F74013060002634406032E883E86636B60
:10362000E6061388D7FF0146636607010D071D8F65
:103630001376C7FFB297B295E3E3D7FA828083A3EC
:10364000050083A2450083AF850003AFC50083AEAC
:10365000050103AE450103A3850183A8C50123A08D
:10366000770023A2570003A8050223A4F70123A68D
:10367000E70123A8D70123AAC70123AC670023AE23
:103680001701938747029385450223AE07FF33084E
:10369000F74051B78328080011061108232E16FFA2
:1036A000BDBF3D432A876373C3029377F700BDEF25
:1036B000ADE5937606FF3D8ABA960CC34CC30CC7A2
:1036C0004CC74107E36BD7FE11E28280B306C340CB
:1036D0008A069702000096966780A6002307B70027
:1036E000A306B7002306B700A305B7002305B7005C
:1036F000A304B7002304B700A303B7002303B70054
:10370000A302B7002302B700A301B7002301B7004B
:10371000A300B7002300B700828093F5F50F9396BE
:103720008500D58D93960501D58D61B793962700B9
:103730009702000096968682E78086FA9680C117E7
:103740001D8F3E96E374C3F8A5B7C5C183A7C5FF17
:10375000011122CC06CE1384C5FF63D307003E942B
:103760002AC6952917570070130787A81C433245AE
:1037700081EB2322040000C36244F2400561A9A941
:10378000637DF4001040B306C4006396D7009443F1
:10379000DC43B29614C05CC0F9BF3E87DC4399C3DA
:1037A000E37DF4FE14433306D700631F8600104008
:1037B000B29614C33306D700E390C7FC9043DC43B2
:1037C000B29614C35CC34DBF6375C400B1471CC13E
:1037D00065B71040B306C4006396D7009443DC433A
:1037E000B29614C05CC040C341BF8280011126CA9A
:1037F00093843500F1984AC806CE22CC4EC6A10467
:10380000B1472A8963F4F404B14463E3B4044A85FC
:10381000D926975600709386A69D98423A8421E453
:10382000175400701304049D1C4089E781454A85A4
:10383000F12008C0A6854A85D120FD5963183507B7
:10384000B1472320F9004A85412E31A0E3DF04FA75
:10385000B1472320F9000145F2406244D244424975
:10386000B249056182801C40858F63CE07022D46D8
:103870006376F6001CC03E9404C029A05C4063122D
:1038800087029CC24A85892E1305B4009307440021
:1038900061993307F540E301F5FC3A94898F1CC028
:1038A00065BF5CC3C5B72287404095BF1304350090
:1038B0007198E30385FCB305A4404A858120E31D8C
:1038C00035FBBDBF5D7122D406D62A842EDA32DCE8
:1038D00036DEBAC0BEC2C2C4C6C603A5018111C5C8
:1038E0001C4D81E72AC6BD2A32450C455418228654
:1038F00036CE892EB250225461618280411122C499
:103900002A842E859757007023AA078E06C6EF00DB
:10391000F07BFD576318F5009757007083A7078E5B
:1039200091C31CC0B2402244410182806FC05FB984
:10393000AA88175500701305258C1C4191EF175765
:103940000070130767B718C113050000BA8709C5CF
:103950001C412324F708BA87D8437D487D55634628
:10396000E804638D080203A88708630008041315A0
:103970002700429510C10323081005463316E600C0
:103980003363C300232068102320D508894663973A
:10399000D80083264810558E2322C810930617009E
:1039A0000A07D4C3BA978CC701458280411122C44B
:1039B00006C62A842316B5002317C5002320050058
:1039C00023220500232405002322050623280500C1
:1039D000232A0500232C0500214681451305C50532
:1039E000C93197170000938767875CD0971700004D
:1039F0009387C7891CD4971700009387078E5CD4E0
:103A0000971700009387C790B24000D01CD822447B
:103A10004101828097150000938565C781AA4111F5
:103A200026C2130680069384F5FFB384C4024AC0FD
:103A30002E8922C406C6938544074D3B2A8401CDB6
:103A40002320050023222501310508C4138684069E
:103A50008145EFF01FC5B2402285224492440249BD
:103A6000410182801C4DBDE3411122C406C6970767
:103A70000000938767FA1CD5232405042326050438
:103A8000232805049717000083A7C7E62A84631438
:103A9000F50085471CCD22851D2848C022850528B4
:103AA00008C422852D2048C4484001469145FD3D6B
:103AB00008440546A545DD3D48440946C945FD3550
:103AC0008547B2401CCC2244410182808280411152
:103AD00026C29714000083A4E4E19C4C4AC006C6A9
:103AE00022C42A8999E32685B53F938484048044BF
:103AF000DC40FD1763D607009C40B9CF8440C5BFAA
:103B00000317C40039E7C177850723220406232061
:103B1000040023220400232404005CC4232804009E
:103B2000232A0400232C0400214681451305C405E3
:103B3000EFF03FB7232A0402232C040223240404B9
:103B400023260404B24022852244924402494101C2
:103B500082801304840671BF91454A85C93588C0A7
:103B60002A8449FDB1472320F900E9BF797122D4A5
:103B70004AD04ECE52CC5AC85EC606D626D256CAB7
:103B80002A892E8A130485048149054BFD5B044470
:103B9000832A4400FD1A63D00A0200406DF8B25037
:103BA000225492540259624AD24A424BB24B4E8539
:103BB000F2494561828083D7C400637BFB00839711
:103BC000E40063877701A6854A85029AB3E9A900D4
:103BD00093848406C1B7828082801C46FD171CC670
:103BE00063D90700184E63C5E700A9476393F50042
:103BF0000DA71C422E851387170018C22380B7001B
:103C00008280011122CC26CA4AC84EC652C406CEB2
:103C10002A89AE893284B304D6007D5A6314940095
:103C2000014509A8834504004E864A857D37050471
:103C3000E31645FFF2406244D2444249B249224A67
:103C400005618280357122CD26CB4AC94EC706CF89
:103C500052C556C35AC1DEDEE2DCE6DAAA89AE847A
:103C60003289368401C51C4D91E3ED3B9717000066
:103C7000938707FE639CF40C83A4490083D7C40098
:103C8000A18BFDC79C48EDC793070002A304F10276
:103C90009307000302D22305F10222C6930B5002C0
:103CA000971A0000938ACAFE054C294B4A84834721
:103CB000040099C36390770FB30C2441630D240172
:103CC000E6864A86A6854E852D3FFD576306F51E7E
:103CD0009257E6973ED283470400638F071CFD5737
:103CE0001309140002C802CE3ECA02CCA309010483
:103CF00082D48345090015465685EF003032C2470D
:103D00001304190051E913F7070109C7130700024B
:103D1000A309E10413F7870009C71307B002A30939
:103D2000E104834609001307A002638FE606F24709
:103D30004A8481462546034704009305140013076F
:103D400007FD6378E60AADCA3ECEBDA09717000016
:103D5000938707F26395F40083A4890005B797174A
:103D600000009387E7ECE39BF4F083A4C90039B724
:103D7000A6854E85512D09D97D55FA406A44DA440D
:103D80004A49BA492A4A9A4A0A4BF65B665CD65CAB
:103D90000D618280050421BF330555413315AC0008
:103DA000C98F3EC82289B1B73247930647001843EE
:103DB00036C6634907023ACE034704009307E00280
:103DC000631FF704034714009307A002631BF70265
:103DD000B2470904138747009C433AC663C10702F0
:103DE0003ECA35A83307E04093E727003ACE3EC8E5
:103DF000E1B7B38767032E848546BA972DBFFD5779
:103E0000C5B7050402CA8146814725460347040019
:103E100093051400130707FD6376E606F1F2834568
:103E200004000D4617150000130505E7EF00101FED
:103E300011CD97170000938727E61D8D9307000487
:103E4000B397A700424505045D8D2AC88345040049
:103E5000194617150000130565E41309140023041F
:103E6000B102EF00B01B2DC19307000095E7424758
:103E7000B2471377071009CF91073EC69257D297E2
:103E80003ED22DB5B38767032E848546BA97BDBF52
:103E90009D07E19BA107D5B77800970600009386A0
:103EA00086D626860C084E8597000000E7000000A5
:103EB000FD572A8AE314F5FC83D7C40093F707045F
:103EC000E39C07EA125555BD7800970600009386DB
:103ED00086D326860C084E85012AD9BF797152CC2B
:103EE0009C493A8A984522D426D24ECE56CA06D646
:103EF0004AD05AC85EC6AA892E84B284B68A63D3D1
:103F0000E700BA879CC00347340419C385079CC0E7
:103F10001C4093F7070281C79C4089079CC0032976
:103F2000040013796900631A0900130B9401FD5B07
:103F30005C449840998F634CF90483473404B3364A
:103F4000F0001C4093F70702A5EB13063404D68556
:103F50004E85029AFD576303F5041C4011469840B4
:103F6000998B544481446397C700B384E64063D37C
:103F7000040081441C4418486354F700998FBE9490
:103F8000014969047D5B63982405014509A88546BC
:103F90005A86D6854E85029A631E75017D55B250AC
:103FA000225492540259F249624AD24A424BB24BCD
:103FB000456182800509ADBF3307D40013060003B5
:103FC000A301C7040347540493871600A2978906E8
:103FD000A381E7049DBF85462286D6854E85029A39
:103FE000E30E65FB050945B7797122D426D24AD084
:103FF0004ECE06D652CC56CA5AC803C8850193077E
:104000008007AA842E843289B68963EE070193075C
:1040100020069386350463ED07016305081C9307AA
:104020008005630AF812930A24042301040515A8E5
:104030009307D8F993F7F70F5546E366F6FE171680
:1040400000001306A6C88A07B2979C43B2978287DE
:104050001C43938A2504938647009C4314C3238101
:10406000F50485475DA29C41084313F607089305B4
:1040700045000DC21C410CC363D807001307D002D2
:10408000B307F040A301E40417160000130686C12D
:104090002948A1A013F607041C410CC371DEC20716
:1040A000C187D9BF90411C4313750608938547000B
:1040B00001C50CC39C4339A0137606040CC37DDAFA
:1040C00083D707001307F00617160000130686BDF6
:1040D0006304E80E2948A3010404584018C463454A
:1040E00007000C40ED990CC099E3B68A19CFB68A47
:1040F00033F70703FD1A3297034707002380EA00CE
:104100003E87B3D70703E37507FFA147631EF80097
:104110001C40858B91CB58401C4863C7E700930730
:104120000003A38FFAFEFD1AB386564114C84E87CA
:10413000CA867000A285268555337D5A631B450DBE
:104140007D55B250225492540259F249624AD24AE1
:10415000424B45618280A3820505171600001306B5
:1041600066B40C40084313F805081C411105630DA3
:10417000080208C313F7150001C793E505020CC038
:104180004148B1FB18401377F7FD18C0A9B79C410F
:1041900093E707029CC193078007A302F404171654
:1041A0000000130666B175BF13F8050408C3E303E6
:1041B00008FCC207C1837DBF214831BF90411C4329
:1041C000CC4913780608138547006306080008C326
:1041D0009C438CC301A808C3137606049C4375DA7C
:1041E0002390B70023280400B68A91B71C43D0411E
:1041F00081459386470014C383AA07005685392D4D
:1042000001C53305554148C05C401CC8A3010404E6
:1042100039BF14485686CA8526858299E30245F33C
:104220001C40898B8DE7B2474844E35CF5F03E853E
:1042300009BF85465686CA8526858299E30265F1BF
:10424000050A5C443247998FE345FAFEE9BF014A0B
:10425000930A94017D5BF5B7411122C42E848395A6
:10426000E50006C6C92B634905007C48AA977CC8AF
:10427000B2402244410182808357C4007D777D177C
:10428000F98F2316F400EDB783D7C500011122CCB6
:1042900026CA4AC84EC606CE93F70710AA842E84B3
:1042A0003289B68991C78395E500894601468921FF
:1042B0008357C4007D777D17F98F8315E40023169B
:1042C000F4006244F240CE864A86B24942492685CD
:1042D000D244056101A2411122C42E848395E500D8
:1042E00006C63921FD570357C400631BF500FD774F
:1042F000FD17F98F2316F400B24022444101828059
:104300008567D98F2316F40068C8FDB78395E5004B
:1043100009A4011122CC26CA4AC806CE4EC6AA84D8
:104320002E89328409C51C4D99E3EFF0AFF397173E
:1043300000009387E7916319F406C0401C4C1CC42D
:104340008357C400A18BC9C31C48BDCF1C4808407B
:104350009379F90F1379F90F1D8D5C486346F500C9
:10436000A28526851D262DE51C440505FD171CC4C8
:104370001C401387170018C0238037015C486389ED
:10438000A7008357C400858B81CBA9476316F9002A
:10439000A2852685DD2C0DEDF2406244D244B2495F
:1043A0004A85424905618280971700009387478CB0
:1043B0006314F400804459B7971700009387478728
:1043C000E31EF4F6C0449DBFA285268535283DDD59
:1043D0007D59D9B7411122C42A842E85B2853686EB
:1043E0009747007023AC07E006C6EFC00F85FD5766
:1043F0006318F5009747007083A747E091C31CC07E
:10440000B240224441018280411122C426C24AC0E6
:1044100006C683A401812A892E8491C49C4C81E71D
:104420002685EFF02FE497170000938767826317C4
:10443000F402C0408317C4001397070193F6870066
:104440004183B5EA9376070195EA25472320E900E1
:1044500093E707042316F4007D5579A89717000009
:10446000938707816314F4008044E9B7970700003D
:104470009387077CE310F4FCC0446DBF118B15C714
:104480004C5891C9930744046385F5004A85EFF0C1
:10449000CFAB232A04028357C4002322040093F7DE
:1044A000B7FD2316F4001C481CC08357C40093E7D3
:1044B00087002316F4001C4881EF8357C4001307BC
:1044C000002093F707286385E700A2854A85452CDD
:1044D0008317C4001397070193F6170041839DC209
:1044E000544823240400B306D04014CC144801459A
:1044F00081E61377070829FFB2402244924402491B
:104500004101828093762700014691E2504810C411
:10451000F1BF411122C42A842E859747007023AF32
:1045200007CC06C6EFB05FF9FD576318F500974753
:10453000007083A7A7CC91C31CC0B24022444101A4
:10454000828083D7C500011122CC26CA06CE4AC874
:104550004EC613F78700AA842E847DE3D8416347B3
:10456000E000B8416344E00001457DA858546DDF88
:10457000856603A90400F58F23A00400ADCF684829
:104580008357C400918B99C75C401D8D5C5899C3BB
:104590003C401D8D5C540C502A86814626858297AE
:1045A000FD570357C400631DF5009440F54763E4CD
:1045B000D708B70740208507B3D7D700858BA5CF8D
:1045C0001C48232204001CC085677D8F19C7FD5736
:1045D0006314F5009C4091E368C84C5823A0240163
:1045E000C1D5930744046385F5002685EFF0EF9568
:1045F000232A040295BF0C50854601462685029762
:10460000FD57E31FF5F69C40A5DF75476385E7007E
:1046100059476395E70023A02401B9B78357C40025
:1046200093E707042316F400F2406244D24442495F
:10463000B24905618280136707042316E400EDB7D1
:1046400083A90501E38209F203A905008D8B23A04C
:10465000350133093941014791E3D84918C4E3557D
:1046600020F11C540C50CA864E8626858297634AD8
:10467000A0008357C4007D5593E707042316F40078
:1046800065B7AA993309A940D9BF9C49A5C30111AF
:1046900022CC06CE2A8419C51C4D89E72EC6EFF020
:1046A0006FBCB245970700009387875A639BF5005C
:1046B0004C408397C50095C722856244F24005614E
:1046C00049B5970700009387A75A6394F5000C44F7
:1046D000CDB7970700009387A755E39CF5FC4C44A2
:1046E000C9BFF24062440145056182800145828074
:1046F000411122C42A842E85B285368697470070E0
:1047000023AE07AE06C6EFB0FFDBFD576318F5001A
:104710009747007083A787AE91C31CC0B240224464
:10472000410182805971CAD02E898395E500A2D4B7
:10473000A6D286D63284B68463DC05008317C9000E
:1047400023A0040093F707088DE39307004005A01A
:104750003000212AE34405FE3247BD67F98F79779F
:10476000BA9793B717009CC0CDB793070004B65013
:104770001CC026549654065901456561828083D732
:10478000C500011122CC06CE26CA4AC8898B2E84C8
:1047900089CF930774041CC01CC885475CC8F240CD
:1047A0006244D244424905618280740030002A8903
:1047B000953FA245AA844A85EFF04F8301ED831708
:1047C000C40013F7072061FFF19B93E7270023162E
:1047D000F400C1B797F7FFFF938707242324F9025A
:1047E0008357C40008C008C893E707082316F400DD
:1047F000A2475CC8B24789CF8315E4004A8579286F
:1048000001C98357C400F19B93E717002316F400F6
:104810000355C400C98C2316940051B793F5F50FC6
:104820002A966314C5000145828083470500E38D05
:10483000B7FE0505FDB7411122C42A842E85B28535
:1048400036869747007023AB079A06C6EFB0DFC7DE
:10485000FD576318F5009747007083A7279A91C307
:104860001CC0B240224441018280411122C42A84EA
:104870002E85B2859747007023A2079806C6EFB031
:10488000FFC3FD576318F5009747007083A707978C
:1048900091C31CC0B240224441018280411122C414
:1048A0002A842E859747007023AA079406C6EFB086
:1048B0003FC1FD576318F5009747007083A7079421
:1048C00091C31CC0B240224441018280174700704E
:1048D000130707931443AA8791E6974600709386BF
:1048E00066C614C30843AA971CC382800000000058
:1048F0000000009048656C6C6F20566572695369C2
:104900006C69636F6E0D0A0048656C6C6F5F56656D
:10491000726953696C69636F6E000000496E76615D
:104920006C69642053444B206C6963656E73652128
:104930000D0A0000536F6320496E6974204572723E
:104940006F72210D0A0000005461736B20257327DC
:104950007320737461636B206F766572666C6F771A
:104960006564210A000000004D4341555345203A3B
:10497000203078256C780D0A00000000286E756CD8
:104980006C2900002573204552525F47454E455221
:10499000494300002573204552525F494E56414C11
:1049A000494400002573204552525F4E4F4D454DFE
:1049B000000000002573204552525F46554C4C00C4
:1049C0002573204552525F454D5054590000000058
:1049D0002573204552525F494F0000002573204542
:1049E00052525F42555359002573204552525F542D
:1049F000494D454F555400002573204552525F4E96
:104A00004F444556494345002573204552525F4C5B
:104A10004F53545F434F4E002573204552525F4E13
:104A20004F5F41434B0000002573204552525F4EBB
:104A30004F545F5245414459000000002573204502
:104A400052525F44656661756C74000062530020C9
:104A500012540020725300208253002092530020F1
:104A6000A2530020B2530020C2530020D253002092
:104A7000E2530020F253002002540020565300203D
:104A800000000000FFFFFFFF010000000100000028
:104A90000100000001000000010000000100000012
:104AA00005000000060000000200000003000000F6
:104AB00004000000FFFFFFFF0700000008000000E7
:104AC000FFFFFFFF100000004572726F723A206313
:104AD0007265617465207461736B20257320666153
:104AE000696C656420256C640A0000007379735F4B
:104AF00069646C65000000007379735F74696D65AB
:104B0000720000002C2100202C2100202C210020EC
:104B1000B021002086210020BC2100202C21002073
:104B20002C210020B021002086210020000102025B
:104B30000303030304040404040404040505050535
:104B40000505050505050505050505050606060611
:104B500006060606060606060606060606060606F5
:104B600006060606060606060606060607070707E1
:104B700007070707070707070707070707070707C5
:104B800007070707070707070707070707070707B5
:104B900007070707070707070707070707070707A5
:104BA0000707070707070707070707070808080891
:104BB0000808080808080808080808080808080875
:104BC0000808080808080808080808080808080865
:104BD0000808080808080808080808080808080855
:104BE0000808080808080808080808080808080845
:104BF0000808080808080808080808080808080835
:104C00000808080808080808080808080808080824
:104C10000808080808080808080808080808080814
:104C20000808080808080808080808080000000024
:104C30000000000000000000000000000000000074
:104C40000000000000000000000000000000000064
:104C50000000000000000000000000000000000054
:104C60000000000000000000000000000000000044
:104C70000000000000000000000000000000000034
:104C8000000000000000000000000000232D302B79
:104C900020000000686C4C006566674546470000D0
:104CA0003031323334353637383941424344454662
:104CB0000000000030313233343536373839616224
:104CC000636465660000000088F3FFFF9EF3FFFF4A
:104CD0005EF3FFFF5EF3FFFF5EF3FFFF5EF3FFFF98
:104CE0009EF3FFFF5EF3FFFF5EF3FFFF5EF3FFFF48
:104CF0005EF3FFFFF4F4FFFFDCF3FFFFC6F4FFFFFA
:104D00005EF3FFFF5EF3FFFF24F5FFFF5EF3FFFF9F
:104D1000DCF3FFFF5EF3FFFF5EF3FFFFCEF4FFFF68
:104D2000011122CC26CA4EC606CE4AC852C456C26B
:104D3000AE84B28983C505002A846355C00E6380A2
:104D40000510814785073387F400034707007DFB83
:104D500063C7370793F92600639A090C13F9160005
:104D600063030900014933099940130A0002930AB9
:104D7000190059C818402300B7001840050718C08B
:104D800083C51400338954018504E5F5635F300160
:104D9000137AFA0FCE842DCC1C40238047011C408F
:104DA00085071CC0FD14E5F84E99F2406244D244D8
:104DB000B249224A924A4A85424905618280338932
:104DC000F94013FA2600133A1A00330A4041137AC5
:104DD0000AFF858A130A0A03B9EE63542007937AFF
:104DE000FA0FCA891DC81C40238057011C40850743
:104DF0001CC0FD19E39809FE83C50400DDD5330905
:104E00009940930A19003DF40145EFB06FE08DBF62
:104E1000D2850145EFB0CFDF71B7D6850145EFB040
:104E20002FDFC1BF130A00020149C9BF130A0003E3
:104E300001498149E9B7CA890149F1F181BF328944
:104E400049B7CA8901495DBF797126D206D622D4F5
:104E50004AD03283B6843A86BE86C1CDAE882A89CE
:104E6000A5E8A30F0100130EF101A54E130868FC7D
:104E700019A0228EAE88B3F568021304FEFF63D337
:104E8000BE00C29593850503A30FBEFEB3D568028D
:104E9000E3F168FE99E8A2854A855935B25022545B
:104EA0000259269592544561828005CE93F72600DB
:104EB0008DCB630C0904832709001307D0022380DC
:104EC000E700832709007D1685072320F900E1B755
:104ED0008144E30803F8E3D605F8B308B0408544FD
:104EE00049B79307D002A30FF4FE81441304EEFFE9
:104EF0005DB74C0893070003231AF1001535B25033
:104F0000225492540259456182809305D002014592
:104F100036C632C4EFB0CFCF2246B2467D16A5BF0B
:104F20005971D2CC86D6A2D4A6D2CAD0CECED6CAF9
:104F3000DAC8DEC6E2C4E6C2EAC06EDE83C7050098
:104F40002A8A63880712375700201307C7972E89CC
:104F5000328B814B014C8148014D930A5002930CD6
:104F60003004930D00033ACA3DA0834709006394BF
:104F700097019307300683260A0022872380F600D4
:104F800083270A004A8485072320FA00050D3A8901
:104F900083471400E5C313041900E39857FD8347C2
:104FA0001900E9CB6382570D1307D002814963874B
:104FB000E70A6399B7018347140093E929000504C0
:104FC000E38BB7FF138707FD1376F70FA5468144E0
:104FD00063E0C602A945254683471400B384B402A2
:104FE000BA94138707FD9376F70F0504E376D6FE90
:104FF00013073007130914006389E7169306C006E8
:105000006381D70C034704006305D70C9307400660
:105010006305F71C93078007630DF71C93070007D0
:10502000630EF718930780056304F71E9307500774
:105030006302F72093073006E31CF7F483270B0085
:10504000CE8626866C10528546CC2306F102A30636
:105050000102F931E248110B2A9D1DBF8347290047
:10506000130429008549B1B71307290022893A841E
:1050700019B7014D83270A0035472380070083278E
:105080000A006A852380E70083270A001387170038
:105090002320EA002947A380E70083270A00B650AF
:1050A000265485072320FA0096540659F649664A85
:1050B000D64A464BB64B264C964C064DF25D656182
:1050C000828003471400930624006318F7064A847D
:1050D0003689130E7B0003471400137E8EFF93075F
:1050E0004006832B0E00032C4E00130B8E00130F73
:1050F0001900630BF710930780076308F7089307FD
:1051000000076305F716930780056304F7149307F8
:1051100050074A8489487A89E31EF7F0C68602C0A0
:1051200093081006DE87628829474E86A685528539
:10513000EFB05FD62A9D8148A1BD93074006630763
:10514000F70E93078007630DF710930700076304BA
:10515000F706930780056308F71093075007630C61
:10516000F7104A8485483689F1B583270B00D2456C
:10517000110B91C3BE85CE862686528546CC4D3610
:10518000E2482A9D31B54A8F2289E28FDE88631674
:105190000C0E4A847A897ECC13081006CE87C68509
:1051A00026878146414652854531E24F8148B30703
:1051B000F5013E9DF1BB4A8485483689DA878C43E8
:1051C00013081006CE87268781464146528546CC75
:1051D000A539E248110B2A9D65BB89476387F80012
:1051E000832B0B00110B13DCFB418547C6863EC0A9
:1051F00005BF8947E389F8F883280B00814F110B1D
:10520000C68B13DCF84141BF4A8489487A89F1BFD3
:105210008947638EF80283280B00814F110BC68BE0
:1052200013DCF8417ECC130810048DBF4A848548F6
:1052300036897DB78947E383F8EECA862289832BB6
:105240000B004A84110B13DCFB413689C1BD4A8F28
:105250002289E28FDE8863130C044A847A89D9B7E5
:105260004A84368951BF4A84368975B74A84DA87B9
:105270007A898948A9B78548D9B713081006CE8717
:10528000268781464146E28552857ACE46CC6D3EE0
:10529000724F4A84E248AA8F7A89F5BD1308100438
:1052A000CE87268781464146E28552857ACE46CC16
:1052B000613E724F4A84E248AA8F7A89A5B7797114
:1052C00006C62ECA32CC36CE3AD03ED242D446D6CC
:1052D000EFE04FDFB240456182805D7113038103CF
:1052E0002AC632DC68001A8606D636DEBAC0BEC2CE
:1052F000C2C4C6C61ACE2D31B25061618280F1653A
:105300004111938505203735011006C6EFB01FB552
:10531000B240014541018280C54763EAA700B75703
:105320000020938707A80A053E95084182807D5595
:10533000828041113707009006C60505B147032753
:10534000870663E8A70CB75700209387C7A40A0510
:105350003E951C4182876346E00CB2400145410105
:105360008280E35CE0FE3755002013054598813FBD
:10537000EDB7E354E0FE375500201305459981371A
:10538000E9BFE35CE0FC375500201305459A053F73
:10539000E9B7E354E0FC375500201305459B05377A
:1053A0006DBFE35CE0FA375500201305059C013F13
:1053B0006DB7E354E0FA375500201305059D01371A
:1053C00069BFE35CE0F8375500201305C59DC53D76
:1053D00069B7E354E0F8375500201305859EC535BD
:1053E000ADBFE35CE0F6375500201305859FC13D56
:1053F000ADB7E354E0F637550020130585A0C1355D
:10540000A9BFE35CE0F437550020130585A1453DB5
:10541000A9B7E354E0F4375500201305C5A345357B
:105420002DBF37550020130585A2513D3DB77D5551
:02543000828078
:10543800000000004C4C00206C4C00202C4C00203C
:105448000000000000000000000000000000000054
:105458000000000000000000000000000000000044
:105468000000000000000000000000000000000034
:105478000000000000000000000000000000000024
:105488000000000000000000000000000000000014
:10549800AAAAAAAAFF000000020000000700000054
:0854A80000000090000000006C
:1054B00000000000000000000000000000000000EC
:1054C00000000000000000000000000000000000DC
:1054D00000000000000000000000000000000000CC
:1054E00000000000000000000000000000000000BC
:04000005200001C016
:00000001FF
